:040000009AEF02F081
:0800080000C504F501C505F572
:1000100002C506F5076A03C508F50001F5C409F530
:10002000F6C40AF5F7C40BF5F8C40CF5A2A01CEF52
:1000300000F0B2B039EF00F009C5F5F40AC5F6F4E6
:100040000BC5F7F40CC5F8F404C500F505C501F5BA
:1000500006C502F5078E08C503F51100F76A700F93
:10006000F66E000EF722000EF86E0900F550120031
:100070002505050EEA6E1D0EE96E1F50E926000EDD
:10008000EA220201B2C221F5A1C2EFF421A204D0FA
:10009000AB99B083B293AB891F2A010ED8801F544D
:1000A00001E21F6A20501F5C01E12382B29000012F
:1000B0001CEF00F00601BB51016ABA5D03E2BAC64B
:1000C00000F50CD0006A080EBC6FBA370036BB5181
:1000D000005CD8B0006E0136BC2FF7D700011200CB
:1000E000020E0601AD25E96E000EAE21EA6EEFC4E8
:1000F000B5F6030EAD25E96E000EAE21EA6EEF50A7
:10010000B55DB16FB26BB2AF0ED0040EAD25E96E26
:10011000000EAE21EA6EEFC400F5D8900036005014
:10012000B127000EB223040EAD25E96E000EAE21FC
:10013000EA6EEF50B2BF07D0B25302E1B15D03E304
:10014000FF0E016E66D0ADC6E9F4AEC6EAF4ECC4AB
:10015000B6F6ED52EFC4B5F6020EAD25E96E000E0F
:10016000AE21EA6EEFC4BAF6040EAD25E96E000EBC
:10017000AE21EA6EEFC4BBF600019CDF050E06015E
:10018000AD25E96E000EAE21EA6EEF500002F3508D
:10019000B525B36F000EB621B46F050EAD25E96E1F
:1001A000000EAE21EA6EEFC4B5F6B4C6EAF4B3C6EB
:1001B000E9F4B0C6E2F4AFC6E1F4B551016E04E073
:1001C000E6C4EEF4012EFCD7020EAD25E96E000E5A
:1001D000AE21EA6EEF2A020EAD25E96E000EAE21C9
:1001E000EA6EEFC4B5F6040EAD25E96E000EAE2141
:1001F000EA6EEFC400F5D89000360050B55D07E315
:10020000020EAD25E96E000EAE21EA6EEF6A000E19
:10021000016E000117EF01F0060E0601AE6F8D0EA4
:10022000AD6FACC6B0F6ABC6AFF6000159D7015002
:1002300022EF02F00900F55213E0F6C4ABF6F7C462
:10024000ACF6F8C4ADF6F550B2A2FED70201A36F2A
:10025000ABC6F6F4ACC6F7F4ADC6F8F40001EAD7C5
:100260001200020E0601AD25E96E000EAE21EA6E07
:10027000EFC4B6F6030EAD25E96E000EAE21EA6EB0
:10028000EF50B65DB26FB36BB3AF0ED0040EAD25B9
:10029000E96E000EAE21EA6EEFC400F5D89000368C
:1002A0000050B227000EB323B25305E1B35303E16C
:1002B000FF0E016E6BD0ADC6E9F4AEC6EAF4ECC435
:1002C000B7F6ED52EFC4B6F6030EAD25E96E000E9B
:1002D000AE21EA6EEFC4BAF6040EAD25E96E000E4B
:1002E000AE21EA6EEFC4BBF60001E4DE050E0601A6
:1002F000AD25E96E000EAE21EA6EEF500002F3501C
:10030000B625B46F000EB721B56FAF51B01117E02D
:10031000050EAD25E96E000EAE21EA6EEFC4B6F60D
:10032000B0C6EAF4AFC6E9F4B5C6E2F4B4C6E1F487
:10033000B651016E04E0E6C4EEF4012EFCD7B153D1
:1003400023E1030EAD25E96E000EAE21EA6EEF2A21
:10035000030EAD25E96E000EAE21EA6EEFC4B6F6CF
:10036000040EAD25E96E000EAE21EA6EEFC400F575
:10037000D89000360050B65D07E3030EAD25E96E58
:10038000000EAE21EA6EEF6A000E016E0001D5EF9D
:1003900001F0060E0601AE6F8D0EAD6FACC6B0F665
:1003A000ABC6AFF6B16B00015CD7015036EF02F07F
:1003B0000900F6C4ACF6F7C4ADF6F8C4AEF6F550D5
:1003C000B2A2FED70201A36FACC6F6F4ADC6F7F435
:1003D000AEC6F8F40601AB2F01D002D00001E8D779
:1003E000000112000601ACBF12D00F0E006EAB3937
:1003F00000160A0E005C03E2300E002602D0AC515B
:1004000000260050B2A2FED70201A36F06010F0E14
:10041000AB170A0EAB5D02E2300E02D0AC9FAC51BE
:10042000AB27AB51B2A2FED70201A36F00011200AD
:10043000010E0601956FA06B060EAC6F950EAB6FAB
:100440000001EAD601520BE0FA0EF66E040EF76ECA
:10045000000EF86EEFDEFF0E016E026E46D0060E45
:100460000601AC6FA00EAB6F000193D701520BE0F9
:100470000E0EF66E050EF76E000EF86EDBDEFF0E4A
:10048000016E026E32D01C0EF66E050EF76E000E77
:10049000F86E080E0601AB6F00018ADF95C6ABF659
:1004A000570E0601AC6F00019DDF0A0EB2A2FED707
:1004B0000201A36F280EF66E050EF76E000EF86EA1
:1004C000080E0601AB6F000173DFA0C6ABF6570E36
:1004D0000601AC6F000186DF0A0EB2A2FED7020150
:1004E000A36F000E016E026E0001300E2A6E040E24
:1004F0002B6E000E2C6E36EF03F04F7574206F6676
:1005000020737061636520696E2043420A00434294
:1005100020697320656D7074790A000050757368E6
:100520003A20307825780A00506F703A20203078D1
:1005300025780A00F86AD69A078E0E01550E020138
:10054000006FAA0E006F0091160E726F200E186FCA
:10055000550E006FAA0E006F00810001B06BAF6BEB
:10056000B36B080EB16F600EAD6F0201AC9FC89EF9
:10057000C08EB00EAB6FAF6B8A0EAE6FAD6BAC8F33
:100580001F6A206A226A216A236A1F6A206AA2807F
:100590000601946B936B0401006B086B106B186B76
:1005A000206B286B0001716B726B736B706B756BDA
:1005B000766B776B746B1B6A1C6A050E06018E6F77
:1005C0002D0E8D6F8F6B906B200E916F0B0E926FB7
:1005D000800E03011A6F400E1B6F256A030E276EF3
:1005E000E80E266E296A286A300E2A6E040E2B6EDB
:1005F000000E2C6E246A900E1A6F400E1B6F1AA903
:1006000002D0C10E196F800E186FB19ED89024349D
:10061000006E000123DD026E010E00241FDD036E5B
:1006200003C5EAF402C5E9F4EFC402F5E92AEFC410
:1006300000F5ECC401F5EC2AEFC403F502E1EC2A65
:10064000ED52EC50015C13E10050035C10E1ED52FF
:10065000EE6AEF6A02BE0BD0EC52ECC4FAF4ECC4C2
:10066000FBF4ED52ED52EFC4E8F4F96E0001242AD8
:10067000010E245CD8B402D00301C8D7246A030158
:1006800018511AB919C303F51AA9036AB1BEB7D72D
:08069000F7D72468A2D703008C
:020000040030CA
:100000008CEFF7DF9FFFFFFFFFFFFFFFFFFFFFFF0B
:10001000FFFFFFFFFFFFFFFFFFFFFFFFFFFFFFFFF0
:04002000FFFFFFFFE0
:00000001FF
;PIC18F57Q84
;CRC=0AF1  CREATED="06-Dec-23 11:58"
