:040000005BEF01F0C1
:0800080000C504F501C505F572
:1000100002C506F5076A03C508F50001F5C409F530
:10002000F6C40AF5F7C40BF5F8C40CF5A2A01CEF52
:1000300000F0B2B03AEF00F009C5F5F40AC5F6F4E5
:100040000BC5F7F40CC5F8F404C500F505C501F5BA
:1000500006C502F5078E08C503F51100F76A700F93
:10006000F66E000EF722000EF86E0900F550120031
:1000700025053205050EEA6E1D0EE96E1F50E926B4
:10008000000EEA220201B2C221F5A1C2EFF421A2C0
:1000900004D0AB99B083B293AB891F2A010ED880EC
:1000A0001F5401E21F6A20501F5C01E12382B290BD
:1000B00000011CEF00F03F6A3F2A3C0E3A24E96E33
:1000C000050EEA6ED8B0EA2A3A28006E030801E16C
:1000D000006A3B50005C02E1000E05D000C53AF515
:1000E0003FC5EFF4010EF60E2A6E000E2B6E000EC9
:1000F0002C6EFBEF01F0E0D7B60E2A6E000E2B6ED1
:10010000000E2C6EFBEF01F00900F6C442F5F7C4B7
:1001100043F5F8C444F5F550B2A2FED70201A36F2F
:1001200042C5F6F443C5F7F444C5F8F4412E01D0B6
:1001300002D00001E9D700013CEF01F04850016A0C
:10014000475C03E247C500F50CD0006A080E496E13
:10015000473600364850005CD8B0006E0136492E54
:10016000F7D71200200E42A8300E436E41C500F5AD
:1001700041AE08D0001E002A00C541F52D0E436E89
:10018000428E4280015041C547F5640E486ED6DF6D
:1001900000C541F5300E0124446E41C547F50A0EF5
:1001A000486ECCDF300E0024466E300E0124456EC2
:1001B00043C500F5300E445C04E0428242BE4284F6
:1001C00012D043C544F5200E436E300E455C04E06A
:1001D000428042BE428207D0D8A4428004E144C596
:1001E00045F5200E446E42B405D042B209D042B06B
:1001F0000DD012D04350B2A2FED70201A36F00016E
:100200004450B2A2FED70201A36F00014550B2A232
:10021000FED70201A36F00014650B2A2FED7020131
:10022000A36F000141EF01F03B503A5C03E33B5008
:100230003A5C04D0030ED8803B543A24000A2BE0E9
:100240003B503A5CFDE03C0E3B24E96E050EEA6E45
:10025000D8B0EA2AEFC401F53B2A3B50030801E17C
:100260003B6A01C540F5A60EF66E020EF76E000E53
:10027000F86E0B0E416E48D740C541F5180E426E20
:1002800071D70A0EB2A2FED70201A36F0D0EB2A261
:10029000FED7A36F0001280E376E020E386E000ED7
:1002A000396EFBEF01F0636F756E74206973203A4D
:1002B0002025690A0D00F86AD69A078E0E01550EA0
:1002C0000201006FAA0E006F0091160E726F200ED1
:1002D000186F550E006FAA0E006F00810001B06B01
:1002E000AF6BB36B080EB16F600EAD6F0201AC9FC8
:1002F000C89EC08EB00EAB6FAF6B8A0EAE6FAD6B8B
:10030000AC8F1F6A206A226A216A236A1F6A206AE8
:10031000A2800401006B086B106B186B206B286BBC
:100320000001716B726B736B706B756B766B776BB7
:10033000746B1B6A1C6A800E03011A6F400E1B6FE0
:10034000256A030E276EE80E266E296A010E286EB6
:100350002D6A2E6AB60E2A6E000E2B6E000E2C6EC3
:10036000326A010E346EF40E336E366A356A3A6ABA
:100370003B6A280E376E020E386E000E396E246A04
:10038000900E1A6F400E1B6F1AA902D0C10E196F82
:10039000800E186FB19ED8902434006E00015EDE8E
:1003A000026E010E00245ADE036E03C5EAF402C594
:1003B000E9F4EFC402F5E92AEFC400F5ECC401F555
:1003C000EC2AEFC403F502E1EC2AED52EC50015C9B
:1003D00013E10050035C10E1ED52EE6AEF6A02BED9
:1003E0000BD0EC52ECC4FAF4ECC4FBF4ED52ED5239
:1003F000EFC4E8F4F96E0001242A020E245CD8B49C
:1004000002D00301C8D7246A030118511AB919C3CD
:1004100003F51AA9036AB1BEB7D7F7D7246890D7F6
:020420000300D7
:020000040030CA
:100000008CEFF7DF9FFFFFFFFFFFFFFFFFFFFFFF0B
:10001000FFFFFFFFFFFFFFFFFFFFFFFFFFFFFFFFF0
:04002000FFFFFFFFE0
:00000001FF
;PIC18F57Q84
;CRC=ADD9  CREATED="06-Dec-23 10:22"
